:040000008A110B282E
:10000800FE00030EF0000A08F1008A11302C8A1154
:100018009D2CD1106C228A11A0228A1191228A115A
:10002800B02A831202300313D11485066C228A1178
:100038009F218A1175228A1191228A1185228A119B
:10004800CF01D0015111071D08006400831203136A
:10005800511D27282C228A113128133083120313AB
:10006800D2001430D3000230D4002130D500203023
:10007800D6002730D7000B30D8005230F5000730B3
:10008800F6017D218A111130D2006230D301D401EA
:10009800D40AD501BF228A117D218A111130D200DC
:1000A8000330D301C5228A11BF228A117D218A110A
:1000B800A930F5008030F60008307D218A11113012
:1000C800D2001030D3000930D4000830D501D60052
:1000D8001430D7000F30D801D9003130DA0052304F
:1000E800DB01DC01DD01DE01F5000D30F6017D21CB
:1000F8008A111130D200D3000530D4002D30D5013B
:10010800D601D60AD700D430D8005230D901DA0146
:10011800F5000930F6017D218A111130D200123024
:10012800D3008130D401D40AD501BF228A117D21A0
:100138008A111130D2001230D3000630D401D40A0B
:10014800D5000230BF228A117D218A111130D200D8
:100158001230D3000330D4000830CD228A11F500C4
:100168000730F6017D218A111130D2001230D300F8
:100178000C30D4000D30D5000E30D601D700043035
:10018800D800AA30D9005230DA01DB01DC01DD01E8
:10019800DE01DF01E001E101F5001030F6017D210B
:1001A8008A111130D2001230D3000830D40019302F
:1001B800CD228A11D901DA01DB01DC01DD01F5006C
:1001C8000030F6000C307D218A116630C9228A1170
:1001D8007D218A11C330D3228A117D218A1176307C
:1001E800C9228A117D218A112630C9228A117D21CE
:1001F8008A117630C9228A117D218A11B130F50021
:100208008030F60007307D218A11BE30D3228A1152
:100218007D218A111630C9228A117D218A119230D6
:10022800D7228A117D218A111130D2002030D300C3
:100238004E30C5228A11BF228A117D218A1136309B
:10024800C9228A117D218A114630C9228A117D214D
:100258008A115630C9228A117D218A111130D200A3
:100268002230D3000430D4000830D501D6007F30C6
:10027800D7003D30D801D9005230F5000830F601DA
:100288007D218A119E30F5008030F6000B307D21EB
:100298008A111130D2003030D3000C30D4007330C2
:1002A800D501D600FF30D7004030D8007730D900CC
:1002B800FF30DA007730DB01DB0ADC00FF30DD00DD
:1002C8000230DE007830DF00FF30E0000330E1006C
:1002D8005230F5001030F6017D218A11B830F50052
:1002E8008030F60006307D218A118630D7228A11A7
:1002F8007D29F700F9017908FF3A03198729232294
:100308008A11F9007F2987130713F9017708790201
:1003180003189D2979087507840076080318760A5A
:10032800FF008A1100238A11F8000C228A11F90AA9
:100338008A2907170800F5017508FF3A0319A82943
:1003480023228A11F500A02966300717871307139F
:100358000C22F5017508013E84008A110A238A11CE
:100368000C228A110E30F50A7502031CAE290717F4
:100378000800F5017508FF3A0319C62923228A11D6
:10038800F500BE2977300717871307130C228A1147
:10039800F5017508203E8400FF300C228A11831372
:1003A80080000E30F50A7502031CCD2907170800D6
:1003B800D2007A08D300D4015408FF3A0319E82977
:1003C80023228A11D400E0295330F5000130F601C8
:1003D8007D218A11D4015408FF3A0319F7292322F1
:1003E8008A11D400EF29DB228A110C228A11D40148
:1003F8005208540203180A2A5408393E8400FF3070
:100408000C228A1183138000D40AFC2907170800DC
:10041800F300F201F31F122A8716132A871203101A
:10042800F30D8717071E1A2A73141B2A7310083036
:100438008713F20A7202031C0E2A73080800DB22D3
:100448008A110C228A1100300C22F40007170800C8
:100458008312023003138714F200F30153228A1126
:1004680083120A3003138710F200F3015322831218
:100478000313071787130713F60176080F3E840046
:100488008A110A238A110C228A110730F60A760289
:10049800031C412A14300717F200F301532A73088A
:1004A8007204031908007C30F4000130F5000000E4
:1004B80000000130F402031CF50375087404031DE1
:1004C8005B2A0130F2020030031CF303F302532AC3
:1004D8001530FA000330FB007A30F5000230F601DF
:1004E8007D291130D2000230D301D30AD400203044
:1004F800D501D601D60AD7005230F5000630F601EC
:100508007D293130D2003030D301D4005230D501AA
:10051800D601F5000530F6017D292030D50055308B
:10052800D601D701D801F5000430F6017D218A11E2
:100538002030FA000930DC291130D2000330D30111
:10054800D30AD400D501D6001830D7005230D801CC
:10055800F5000730F6017D293230D2000830D3018A
:10056800D401D501D601D701D800D9005230F50001
:100578000830F6017D29D6005230F5000530F60125
:100588000800D401D40AD5004034F5008030F600C4
:100598001034D5005230D601D701D8010800F50033
:1005A8008030F6000534F5008030F6000C34443015
:0805B800071787130713080061
:10060000FF1B0A2B83137F1883170008840A031922
:10061000FF0A080003308A000408840A82070034B5
:100620007334773477347834413442344334443447
:10063000453446344734483449346D340234013447
:1006400000340134C934C3348034113420340C34C0
:1006500038341134AB34AB3480341A34FF34FF34C3
:1006600000342B340C34A4342234113420340C34B0
:1006700024340034A734C634003454340234C23431
:1006800000340434323480340734113421340C34CF
:100690000034FF34BA340F345134CF34A934C93460
:1006A000FC341B341E340F340134113421340C3427
:1006B0000C34FC34FD341534FF3400340F34FF3473
:1006C000BA340F345134CF34A934113421340C34BA
:1006D0001834C934FC341B341E340F340134FC3458
:1006E000FD341534FF3400340F34113420340C340D
:1006F000003402340034073400342E34E034013442
:10070000C934C334803400340134113420340C34FF
:1007100018340134803408340334803400347034A5
:1007200020340C34E83403340D34113440340834AC
:10073000003438340E34663466344434443420345F
:10074000FE341134203408344534833401345534B4
:1007500002348034FF340834003411342334073435
:1007600000342C340E340B3404340C34733403341E
:1007700011340234043400340034003400340034C2
:10078000113420340334303417342A348034113493
:1007900020340234503484340A3411342034013487
:1007A0003534E2341134203401340C345E3470308A
:1007B00083168F0097013230F400F5018A11562418
:1007C0008A118A1178248A118A1188248A11831245
:1007D0000313051085108A1193248A1100008A11D1
:1007E0002C228A118A1131208A118A110D208A1136
:1007F000C030CD01CE0151108B00D11C0719FD2B4B
:100800008A1191228A11BD192C2C8A11BD218A11BD
:100810008A116C228A110430E601E7006708203E45
:10082000840083130008E6070D30E70A6702031C03
:100830000E2C2D086606031D2C2C2408413A031D9E
:100840002C2C013085066430F200F3018A1153220A
:100850008A118A1115208A118A110D208A11FD2B07
:10086000831203130C1C4F2C78308E00EC308F0059
:10087000CF0A0319D00A4F08143A5004031D432C21
:10088000CF01D0015115CD0A0319CE0A4D083C3ACB
:100890004E04031D4E2CCD01CE0151140C107108D5
:1008A0008A00700E8300FE0E7E0E0900F601F7012D
:1008B00075087702031D5E2C740876020318080081
:1008C00066248A11F60A0319F70A582CF201F3017B
:1008D000F20A0319F30A7308803AFF0089307F0295
:1008E000031D742CA8307202031C682C64000800DD
:1008F000831203179E019F0117308316031395007F
:10090000960185011D308700803083128700080022
:1009100000000000000000000000000000000000D7
:1009200000000000080031309000831678300C146D
:1009300083128E00EC308F00080020308313840077
:1009400052308A11A62483018A11D72B64008001BA
:0C095000840A0406031900340406A72CD6
:00000001FF
