:100000000C9462000C948A000C948A000C948A0070
:100010000C948A000C948A000C948A000C948A0038
:100020000C948A000C948A000C948A000C94970417
:100030000C948A000C948A000C948A000C948A0018
:100040000C944D040C948A000C941B040C94F5033E
:100050000C948A000C948A000C948A000C948A00F8
:100060000C948A000C948A000000000023002600F3
:10007000290000000000240027002A0000000000E2
:10008000250028002B0004040404040404040202D4
:100090000202020203030303030301020408102007
:1000A0004080010204081020010204081020000012
:1000B0000008000201000003040700000000000027
:1000C0000000EC0611241FBECFEFD8E0DEBFCDBF8D
:1000D00011E0A0E0B1E0E6EAFEE002C005900D927A
:1000E000AC3EB107D9F724E0ACEEB1E001C01D92FF
:1000F000AD3EB207E1F710E0C2E6D0E004C02197C0
:10010000FE010E943B07C136D107C9F70E94F505E1
:100110000C9451070C940000AF92BF92CF92DF92E3
:10012000EF92FF920F931F93CF93DF936C017B01AC
:100130008B01040F151FEB015E01AE18BF08C0173D
:10014000D10759F06991D601ED91FC910190F081B0
:10015000E02DC6010995892B79F7C501DF91CF9173
:100160001F910F91FF90EF90DF90CF90BF90AF90D5
:100170000895FC01538D448D252F30E0842F90E0AD
:10018000821B930B541710F0CF9608950197089592
:10019000FC01918D828D981761F0A28DAE0FBF2F5B
:1001A000B11D5D968C91928D9F5F9F73928F90E0B1
:1001B00008958FEF9FEF0895FC01918D828D981720
:1001C00031F0828DE80FF11D858D90E008958FEF5D
:1001D0009FEF0895FC01918D228D892F90E0805C26
:1001E0009F4F821B91098F739927089580E594E0B2
:1001F0000E94EA0021E0892B09F420E0822F089573
:1002000080E090E0892B29F00E94F60081110C9487
:1002100000000895FC01A48DA80FB92FB11DA35AA9
:10022000BF4F2C91848D90E001968F739927848F16
:10023000A689B7892C93A089B1898C918370806439
:100240008C93938D848D981306C00288F389E02DDA
:1002500080818F7D80830895EF92FF920F931F938B
:10026000CF93DF93EC0181E0888F9B8D8C8D981369
:100270001AC0E889F989808185FF15C09FB7F89475
:10028000EE89FF896083E889F989808183708064C1
:1002900080839FBF81E090E0DF91CF911F910F910C
:1002A000FF90EF900895F62E0B8D10E00F5F1F4F1B
:1002B0000F731127E02E8C8D8E110CC00FB607FC2A
:1002C000FACFE889F989808185FFF5CFCE010E94B8
:1002D0000A01F1CFEB8DEC0FFD2FF11DE35AFF4F1B
:1002E000F0829FB7F8940B8FEA89FB898081806246
:1002F000CFCFCF93DF93EC01888D8823B9F0AA8903
:10030000BB89E889F9898C9185FD03C0808186FDD0
:100310000DC00FB607FCF7CF8C9185FFF2CF80811F
:1003200085FFEDCFCE010E940A01E9CFDF91CF9189
:100330000895833081F028F4813099F08230A9F05B
:1003400008958730A9F08830C9F08430B1F48091E5
:1003500080008F7D03C0809180008F778093800024
:10036000089584B58F7784BD089584B58F7DFBCFC4
:100370008091B0008F778093B00008958091B00095
:100380008F7DF9CF1F93CF93DF93282F30E0F901B2
:10039000E255FF4F8491F901E656FF4FD491F901E0
:1003A000EA57FF4FC491CC23A9F0162F81110E9468
:1003B0009901EC2FF0E0EE0FFF1FE458FF4FA591DD
:1003C000B4918FB7F894EC91111108C0D095DE2349
:1003D000DC938FBFDF91CF911F910895DE2BF8CF73
:1003E000CF93DF9390E0FC01E656FF4F24918A57AC
:1003F0009F4FFC0184918823D1F090E0880F991FD2
:10040000FC01EE58FF4FA591B491FC01E458FF4F59
:10041000C591D49161110EC09FB7F8948C91E22FD1
:10042000E0958E238C932881E223E8839FBFDF91A0
:10043000CF9108958FB7F894EC91E22BEC938FBF96
:10044000F6CF3FB7F89480914A0490914B04A09165
:100450004C04B0914D0426B5A89B05C02F3F19F060
:100460000196A11DB11D3FBFBA2FA92F982F882734
:10047000BC01CD01620F711D811D911D42E0660F0F
:10048000771F881F991F4A95D1F708958F929F92E1
:10049000AF92BF92CF92DF92EF92FF924B015C013D
:1004A0000E9421026B017C010E9421026C197D09CE
:1004B0008E099F09683E734081059105A8F321E0EC
:1004C000821A9108A108B10888EEC80E83E0D81EF0
:1004D000E11CF11C81149104A104B10429F7FF90DF
:1004E000EF90DF90CF90BF90AF909F908F90089546
:1004F0008627082E8295807F8025092E982F829549
:100500008F700826869598278927880F880F880F6F
:1005100080250895FC0101900020E9F73197AF0193
:10052000481B590BBC0180E594E00C948C008F9221
:100530009F92BF92CF92DF92EF92FF920F931F9301
:10054000CF93DF93CDB7DEB7C851D1400FB6F89443
:10055000DEBF0FBECDBF10E0EE24E394F12C80E5AA
:1005600094E00E94EA0018161906D4F46AE070E0DC
:1005700080E090E00E94460280E594E00E94C8007E
:10058000E12FF0E0E251FE4F80831F5FE12FF0E0AA
:10059000E251FE4F1082F092ED01E092EC01DFCFCC
:1005A0008091EC019091ED01019709F0C7C06EEECA
:1005B00071E0CE0101967C010E944A07F70101908B
:1005C0000020E9F731978F010E191F09B02E9DE425
:1005D000901708F49AC0809144048111FCCF33E055
:1005E000D32ED00E6D2D8FEF9FEF0E947802ED2D50
:1005F000F0E044E0F595E7954A95E1F7E954FE4FC0
:10060000208120930801ED2DEF70F0E0E954FE4FBA
:1006100020812093090150E0C52E51E0D52E4701DD
:10062000A2E0CA0ED11C282D2E192B15F0F4F401CE
:1006300061914F010E947802F4013197E081AE2F61
:10064000B0E024E0B595A7952A95E1F7A954BE4FEF
:100650002C91D60118962C931897EF70F0E0E9547E
:10066000FE4F208119962C93DBCFF801FF2721E064
:10067000200F220F80959095AF01440F551F465FC4
:100680005E4FDC0164E0B695A7956A95E1F7AF701F
:10069000BB27A954BE4F3C91DA013C93EE0FFF1FDC
:1006A000E55FFE4FDC01AF70BB27A954BE4F3C9104
:1006B00030830E5F000FE02FF0E0E85FFE4FDC01BB
:1006C000AB2FBB27A295AF70A954BE4F3C9130838E
:1006D000A3E0A20FB0E0A85FBE4FE92FFF27EF70A5
:1006E000FF27E954FE4F80818C93245F20934004C0
:1006F0001092410410923D041092420461E08AE09D
:100700000E94C20181E080934404809144048111DD
:10071000FCCF89ED91E00E948A02C7010E948A0203
:100720008FED91E00E948A0268E572E080E090E03F
:100730000E9446021092ED011092EC018091E203BA
:10074000882309F43FC0009136040350003508F0B7
:1007500000E56E01B9ECCB0ED11C10E0A80165EEEE
:1007600073E0C6010E9441071092E203F090360444
:1007700084EE882E83E0982E8FEF9FEFFA94EFEFB0
:10078000FE1631F0D4016D914D010E947802F6CF32
:10079000883B904FB9F482EE91E00E948A02760184
:1007A000C7018C199D098017910744F4F7016191E5
:1007B0007F0180E594E00E942C01F2CF8FED91E063
:1007C0000E948A02C85EDE4F0FB6F894DEBF0FBEED
:1007D000CDBFDF91CF911F910F91FF90EF90DF90F0
:1007E000CF90BF909F908F9008951F920F920FB659
:1007F0000F9211242F933F934F935F936F937F93A7
:100800008F939F93AF93BF93EF93FF9380E594E013
:100810000E940A01FF91EF91BF91AF919F918F913B
:100820007F916F915F914F913F912F910F900FBEEC
:100830000F901F9018951F920F920FB60F921124D0
:100840002F938F939F93EF93FF93E0916004F09128
:1008500061048081E0916604F091670482FD1BC011
:100860009081809169048F5F8F7320916A04821751
:1008700041F0E0916904F0E0E05BFB4F958F8093DD
:100880006904FF91EF919F918F912F910F900FBE6F
:100890000F901F9018958081F4CF1F920F920FB682
:1008A0000F9211242F933F938F939F93AF93BF93F6
:1008B0008091460490914704A0914804B091490466
:1008C0003091450423E0230F2D3758F50196A11DE3
:1008D000B11D209345048093460490934704A09350
:1008E0004804B093490480914A0490914B04A0912C
:1008F0004C04B0914D040196A11DB11D80934A0492
:1009000090934B04A0934C04B0934D04BF91AF91CE
:100910009F918F913F912F910F900FBE0F901F903D
:10092000189526E8230F0296A11DB11DD2CF1F9264
:100930000F920FB60F9211240F931F932F933F9393
:100940004F935F936F937F938F939F93AF93BF93D7
:10095000CF93DF93EF93FF93D0914F04DD2309F101
:100960008091440481111DC0E9EBF0E08491E5EA37
:10097000F0E01491E1E9F0E0C491CC2379F0811129
:100980000E949901EC2FF0E0EE0FFF1FE859FF4F96
:10099000A591B491EC91E12381E009F480E080938A
:1009A000430480914404882321F18091420491E022
:1009B000980F9093420481111CC0C0914104009192
:1009C000A80180914004C81708F47AC060E08AE06A
:1009D0000E94C20160E0802F0E94C2011092440474
:1009E00080913E0490913F04019690933F04809340
:1009F0003E0480914204883010F010924204DD23BE
:100A000009F4B0C0809144048111ACC0209143042A
:100A1000222329F080913C048F5F80933C048091D5
:100A20003A0490913B04291709F468C09BE0803593
:100A300008F09DE1890F80933A0420933B042091B4
:100A40003A04203A08F48EC0809138049091390419
:100A500096958795909339048093380430913C049F
:100A6000353028F098609093390480933804205AE8
:100A700020933A0410923C0480914E04882309F498
:100A8000A3C0809137048F5F809337048C3008F4C3
:100A900069C08091380490913904382F3F73232F17
:100AA00026952695287048E0420F421759F1E22F0B
:100AB000F0E0E954FE4F5081351729F12F5FF5CF53
:100AC000EC2FF0E0E050FF4F608120913D0411E0F9
:100AD000120F10933D0481E090E001C0880F2A9529
:100AE000EAF76823802F0E94C201163008F487CFEE
:100AF00010923D04CF5FC09341047BCF8C5E809306
:100B00003A049DCF20E040E1249F9001112436E07B
:100B1000969587953A95E1F7482F95958795959500
:100B20008795887098E0980F981749F0E82FF0E0C3
:100B3000E954FE4F5081451719F08F5FF5CF80E0E3
:100B4000822B90913604911122C0809335049CEF42
:100B5000980F9D34E0F010924E04809134048F5F22
:100B600080933404FF91EF91DF91CF91BF91AF91CA
:100B70009F918F917F916F915F914F913F912F91B5
:100B80001F910F910F900FBE0F901F901895E0913D
:100B9000360491E09E0F90933604F0E0EC51FC4F48
:100BA00080839091360480913504981750F010920C
:100BB0004E048091E3038F5F8093E30381E0809391
:100BC000E20310923704CECF80913804909139041B
:100BD00088339B4039F681E080934E0410923704AD
:100BE000109236041092E203BDCFCF93DF93CDB7BE
:100BF000DEB72E970FB6F894DEBF0FBECDBF789448
:100C000084B5826084BD84B5816084BD85B5826011
:100C100085BD85B5816085BD80916E0081608093C2
:100C20006E0010928100809181008260809381002B
:100C3000809181008160809381008091800081603B
:100C4000809380008091B10084608093B100809196
:100C5000B00081608093B00080917A0084608093BE
:100C60007A0080917A00826080937A0080917A0085
:100C7000816080937A0080917A00806880937A0006
:100C80001092C1008EE0E9EAF1E0DE0111960190D8
:100C90000D928A95E1F77E0183E0E80EF11C11E0E8
:100CA000812C84E2982E84EFA82EB12C90E8492E56
:100CB0009EE3592E612C712CF701219131917F0116
:100CC00050E040E0C501B4010E941907CA01B90112
:100CD000A30192010E9419072230310541055105F7
:100CE00008F052C01F5F173039F78CE08093A801DD
:100CF00080914F04811105C081E080934F041092D0
:100D00004E04E0916004F091610482E08083E09100
:100D10005C04F0915D041082E0915E04F0915F0448
:100D20008FEC808310926804E0916404F091650474
:100D300086E08083E0916204F091630480818061A9
:100D40008083E0916204F0916304808188608083F5
:100D5000E0916204F0916304808180688083E09177
:100D60006204F091630480818F7D808300E010E055
:100D70000E94970201151105D9F30E94F6008823FD
:100D8000B9F30E940000F4CF163009F4AECF1092F0
:100D9000800088E08093810080918100182B10935F
:100DA0008100309389002093880080916F008260D9
:100DB00080936F0061E08091A8010E94F00160E0E3
:100DC0008BE00E94F00161E08AE00E94F00160E0A7
:100DD0008AE00E94C20189CFE0E5F4E0138212822A
:100DE00088EE93E0A0E0B0E084839583A683B78388
:100DF0008BEC91E09183808385EC90E095878487EC
:100E000084EC90E09787868780EC90E0918B808BD4
:100E100081EC90E0938B828B82EC90E0958B848BBD
:100E200086EC90E0978B868B118E128E138E148E2B
:100E30000895A1E21A2EAA1BBB1BFD010DC0AA1F1B
:100E4000BB1FEE1FFF1FA217B307E407F50720F033
:100E5000A21BB30BE40BF50B661F771F881F991FAE
:100E60001A9469F760957095809590959B01AC01F7
:100E7000BD01CF010895EE0FFF1F0590F491E02D05
:100E80000994FB01DC0102C001900D9241505040D9
:100E9000D8F70895FB01DC0101900D920020E1F7E5
:060EA0000895F894FFCF55
:100EA6002A2A2A2A2A2A382C0000000000000000DC
:100EB600000000000000000000000000000000002C
:100EC600000000000000000000000000000000001C
:100ED600000000000000000000000000000000000C
:100EE60000000000000000000000000000000000FC
:100EF60000000000000000000000000000000000EC
:100F060000000000000000000000000000000000DB
:100F160000000000000000000000000000000000CB
:100F260000000000000000000000000000000000BB
:100F360000000000000000000000000000000000AB
:100F460000000000000000000C0000010008004046
:100F56000000010004050D0D0E131516191A1C23A9
:100F66002526292A2C3234000000002C018C00B9D9
:100F7600007901EA00C800DC00596F753A20000DBF
:0C0F86000A00467269656E643A200000A3
:107E0000112484B714BE81FFF0D085E080938100F7
:107E100082E08093C00088E18093C10086E0809377
:107E2000C20080E18093C4008EE0C9D0259A86E02C
:107E300020E33CEF91E0309385002093840096BBD3
:107E4000B09BFECF1D9AA8958150A9F7CC24DD24C4
:107E500088248394B5E0AB2EA1E19A2EF3E0BF2EE7
:107E6000A2D0813461F49FD0082FAFD0023811F036
:107E7000013811F484E001C083E08DD089C08234E0
:107E800011F484E103C0853419F485E0A6D080C0E4
:107E9000853579F488D0E82EFF2485D0082F10E0AE
:107EA000102F00270E291F29000F111F8ED06801E7
:107EB0006FC0863521F484E090D080E0DECF843638
:107EC00009F040C070D06FD0082F6DD080E0C81688
:107ED00080E7D80618F4F601B7BEE895C0E0D1E017
:107EE00062D089930C17E1F7F0E0CF16F0E7DF06D8
:107EF00018F0F601B7BEE89568D007B600FCFDCFD4
:107F0000A601A0E0B1E02C9130E011968C91119780
:107F100090E0982F8827822B932B1296FA010C0160
:107F200087BEE89511244E5F5F4FF1E0A038BF0790
:107F300051F7F601A7BEE89507B600FCFDCF97BE46
:107F4000E89526C08437B1F42ED02DD0F82E2BD052
:107F50003CD0F601EF2C8F010F5F1F4F84911BD097
:107F6000EA94F801C1F70894C11CD11CFA94CF0C13
:107F7000D11C0EC0853739F428D08EE10CD085E9AC
:107F80000AD08FE07ACF813511F488E018D01DD067
:107F900080E101D065CF982F8091C00085FFFCCF94
:107FA0009093C60008958091C00087FFFCCF809118
:107FB000C00084FD01C0A8958091C6000895E0E648
:107FC000F0E098E1908380830895EDDF803219F02E
:107FD00088E0F5DFFFCF84E1DECF1F93182FE3DFCA
:107FE0001150E9F7F2DF1F91089580E0E8DFEE27F6
:047FF000FF270994CA
:027FFE00040479
:0400000300007E007B
:00000001FF
