:040000008A110B282E
:10000800FE00030EF0000A08F1008A11312C8A1153
:100018009E2CD1106A228A119E228A118F228A115F
:10002800AE2A0230D11485066A228A119D218A11CE
:1000380073228A118F228A1183228A11CF01D0015B
:100048005111071D0800640083120313511D252850
:100058002A228A112F28133083120313D200143056
:10006800D3000230D4002130D5002030D60027300C
:10007800D7000B30D8005230F5000730F6017B214D
:100088008A111130D2006230D301D401D40AD501CB
:10009800BD228A117B218A111130D2000330D3018D
:1000A800C3228A11BD228A117B218A11A930F50049
:1000B8008030F60008307B218A111130D2001030D0
:1000C800D3000930D4000830D501D6001430D70049
:1000D8000F30D801D9003130DA005230DB01DC01B1
:1000E800DD01DE01F5000D30F6017B218A111130AA
:1000F800D200D3000530D4002D30D501D601D60A60
:10010800D700D430D8005230D901DA01F5000930CF
:10011800F6017B218A111130D2001230D3008130D0
:10012800D401D40AD501BD228A117B218A1111304C
:10013800D2001230D3000630D401D40AD5000230E0
:10014800BD228A117B218A111130D2001230D300CE
:100158000330D4000830CB228A11F5000730F601AD
:100168007B218A111130D2001230D3000C30D40018
:100178000D30D5000E30D601D7000430D800AA3093
:10018800D9005230DA01DB01DC01DD01DE01DF01DB
:10019800E001E101F5001030F6017B218A111130F0
:1001A800D2001230D3000830D4001930CB228A1183
:1001B800D901DA01DB01DC01DD01F5000030F600D0
:1001C8000C307B218A116630C7228A117B218A1163
:1001D800C330D6228A117B218A117630C7228A1130
:1001E8007B218A112630C7228A117B218A11763019
:1001F800C7228A117B218A11B130F5008030F600C0
:1002080007307B218A11BE30D6228A117B218A11C0
:100218001630C7228A117B218A119230DA228A117C
:100228007B218A111130D2002030D3004E30C322F6
:100238008A11BD228A117B218A113630C7228A1180
:100248007B218A114630C7228A117B218A115630B8
:10025800C7228A117B218A111130D2002230D300A3
:100268000430D4000830D501D6007F30D7003D30A7
:10027800D801D9005230F5000830F6017B218A11E7
:100288009E30F5008030F6000B307B218A1111304A
:10029800D2003030D3000C30D4007330D501D600F2
:1002A800FF30D7004030D8007730D900FF30DA006F
:1002B8007730DB01DB0ADC00FF30DD000230DE00D6
:1002C8007830DF00FF30E0000330E1005230F50005
:1002D8001030F6017B218A11B830F5008030F60025
:1002E80006307B218A118630DA228A117B29F700B1
:1002F800F9017908FF3A0319852921228A11F900A1
:100308007D2987130713F9017708790203189B29B8
:1003180079087507840076080318760AFF008A11A1
:1003280000238A11F8000A228A11F90A8829071776
:100338000800F5017508FF3A0319A62921228A1138
:10034800F5009E2966300717871307130A22F5015F
:100358007508013E84008A110A238A110A228A112B
:100368000E30F50A7502031CAC2907170800F501C1
:100378007508FF3A0319C42921228A11F500BC29FE
:1003880077300717871307130A228A11F5017508B2
:10039800203E8400FF300A228A11831380000E3029
:1003A800F50A7502031CCB2907170800D2007A0842
:1003B800D300D4015408FF3A0319E62921228A11EF
:1003C800D400DE295330F5000130F6017B218A1173
:1003D800D4015408FF3A0319F52921228A11D400BF
:1003E800ED29D1228A110A228A11D4015208540215
:1003F8000318082A5408393E8400FF300A228A115B
:1004080083138000D40AFA2907170800F300F201C1
:10041800F31F102A8716112A87120310F30D871766
:10042800071E182A7314192A731008308713F20A42
:100438007202031C0C2A73080800D1228A110A22AE
:100448008A1100300A22F4000717080083120230CC
:1004580003138714F200F30151228A1183120A3020
:1004680003138710F200F3015122831203130717B5
:1004780087130713F60176080F3E84008A110A23B2
:100488008A110A228A110730F60A7602031C3F2ACB
:1004980014300717F200F301512A73087204031984
:1004A80008007C30F4000130F50000000000013045
:1004B800F402031CF50375087404031D592A01305E
:1004C800F2020030031CF303F302512A1530FA003C
:1004D8000330FB007A30F5000230F6017B29113039
:1004E800D2000230D301D30AD4002030D501D6017E
:1004F800D60AD7005230F5000630F6017B29313094
:10050800D2003030D301D4005230D501D601F500E5
:100518000530F6017B292030D5005530D601D701AA
:10052800D801F5000430F6017B218A112030FA0049
:100538000930DA291130D2000330D301D30AD400AC
:10054800D501D6001830D7005230D801F500073051
:10055800F6017B293230D2000830D301D401D5010D
:10056800D601D701D800D9005230F5000830F6017D
:100578007B29D6005230F5000530F6010800D40179
:10058800D40AD5004034F5008030F6001034D50088
:100598005230D601D701D801080044300717871315
:1005A80007130800F5008030F6000534F5008030A8
:0405B800F6000C3409
:10060000FF1B0A2B83137F1883170008840A031922
:10061000FF0A080003308A000408840A82070034B5
:100620007334773477347834413442344334443447
:10063000453446344734483449346D340234013447
:1006400000340134C934C3348034113420340C34C0
:1006500038341134AB34AB3480341A34FF34FF34C3
:1006600000342B340C34A4342234113420340C34B0
:1006700024340034A734C634003454340234C23431
:1006800000340434323480340734113421340C34CF
:100690000034FF34BA340F345134CF34A934C93460
:1006A000FC341B341E340F340134113421340C3427
:1006B0000C34FC34FD341534FF3400340F34FF3473
:1006C000BA340F345134CF34A934113421340C34BA
:1006D0001834C934FC341B341E340F340134FC3458
:1006E000FD341534FF3400340F34113420340C340D
:1006F000003402340034073400342E34E034013442
:10070000C934C334803400340134113420340C34FF
:1007100018340134803408340334803400347034A5
:1007200020340C34E83403340D34113440340834AC
:10073000003438340E34663466344434443420345F
:10074000FE341134203408344534833401345534B4
:1007500002348034FF340834003411342334073435
:1007600000342C340E340B3404340C34733403341E
:1007700011340234043400340034003400340034C2
:10078000113420340334303417342A348034113493
:1007900020340234503484340A3411342034013487
:1007A0003534E2341134203401340C345E3470308A
:1007B00083168F0097013230F400F5018A11572417
:1007C0008A118A1179248A118A1189248A11831243
:1007D0000313051085108A1194248A1100008A11D0
:1007E0002A228A118A112F208A118A110D208A113A
:1007F000C030CD01CE0151108B00511C062C511080
:100800008A1115208A118A110D208A11D11C07190D
:10081000FD2B8A118F228A11BD192D2C8A11BB2123
:100820008A118A116A228A110430E601E7006708FA
:10083000203E840083130008E6070D30E70A6702B4
:10084000031C172C2D086606031D2D2C2408413A85
:10085000031D2D2C01308506FD2B8A110D208A11D8
:10086000FD2B831203130C1C502C78308E00EC30BF
:100870008F00CF0A0319D00A4F08143A5004031D01
:10088000442CCF01D0015115CD0A0319CE0A4D08D1
:100890003C3A4E04031D4F2CCD01CE0151140C10D7
:1008A00071088A00700E8300FE0E7E0E0900F601AC
:1008B000F70175087702031D5F2C74087602031890
:1008C000080067248A11F60A0319F70A592CF20165
:1008D000F301F20A0319F30A7308803AFF00893022
:1008E0007F02031D752CA8307202031C692C640062
:1008F0000800831203179E019F011730831603130C
:100900009500960185011D30870080308312870095
:1009100008000000000000000000000000000000CF
:10092000000000000000080031309000831678308D
:100930000C1483128E00EC308F00080020308313DB
:10094000840052308A11A72483018A11D72B6400B6
:0E0950008001840A0406031900340406A82C52
:00000001FF
